:100000000C9463000C948B000C948B000C948B006C
:100010000C948B000C948B000C948B000C948B0034
:100020000C948B000C948B000C948B000C948B0024
:100030000C948B000C948B000C948B000C948B0014
:100040000C9426090C948B000C948B000C948B0060
:100050000C948B000C948B000C948B000C948B00F4
:100060000C9469050C948B0000000000230026000E
:10007000290000000000240027002A0000000008DA
:10008000000201000003040700000000000000005F
:10009000010204081020408001020408102001021F
:1000A0000408102000000000250028002B00040494
:1000B0000404040404040202020202020303030310
:1000C0000303D10CC10C11241FBECFEFD8E0DEBF5B
:1000D000CDBF11E0A0E0B1E0ECECFDE102C0059085
:1000E0000D92A831B107D9F722E0A8E1B1E001C033
:1000F0001D92A131B207E1F710E0C2E6D0E004C0E2
:100100002197FE010E94A60DC136D107C9F70E94B2
:1001100070090C94D90E0C94000008950895CF92A4
:10012000DF92EF92FF920F931F93CF93DF936C01B7
:100130007A018B01C0E0D0E0CE15DF0581F0D80157
:100140006D918D01D601ED91FC910190F081E02D32
:10015000C6010995892B11F02196EECF7E01C701CA
:10016000DF91CF911F910F91FF90EF90DF90CF9093
:10017000089585ED8093BC008091BC0084FDFCCF88
:100180001092B101089540915801262F30E0240FBC
:10019000311D21323105DCF42091B1012430C9F444
:1001A000FC0180E090E0861758F4309158012191CD
:1001B000DC01A85CBE4FA30FB11D2C930196F3CFB9
:1001C00080915801680F6093580180E0089581E0A4
:1001D000089582E008950895E091800180917F0163
:1001E000E81730F4F0E0E85EFE4F808190E008957B
:1001F0008FEF9FEF08959091800180917F01981774
:1002000050F4E92FF0E0E85EFE4F208130E09F5F80
:100210009093800102C02FEF3FEFC90108958091B4
:100220007F0190E020918001821B91090895CF9277
:10023000DF92EF92FF920F931F93CF93DF937C0196
:10024000CB018A012091B201222389F0EB016B01DD
:10025000C40ED51ECC15DD0569F06991D701ED916D
:10026000FC910190F081E02DC7010995F3CF642F37
:100270000E94C300C801DF91CF911F910F91FF90A1
:10028000EF90DF90CF900895CF93DF931F92CDB77B
:10029000DEB769832091B2012223D1F02091D501EC
:1002A000203240F021E030E0FC013383228380E003
:1002B00090E015C08091B301E82FF0E0EC54FE4FC0
:1002C000998190838F5F8093B3018093D50105C09E
:1002D00061E0CE0101960E94C30081E090E00F90A2
:1002E000DF91CF910895089580E090E00895FC019A
:1002F000908196FF04C09F7B908381E0089580E009
:10030000089597FF07C02CE330E0A901481B590B63
:10031000CA0108958D3391050CF0CC9708950F9381
:100320001F938095853560F4682F660F860F282F00
:10033000209590E0A0E0B0E0BC01CD01822B24C06C
:100340008A3A98F48555982F990F980F492F50E0C5
:1003500060E070E0762F652F542F442790958A0136
:100360009B01092BC901B8010FC08A5A682F660F7B
:10037000860F282F209590E0A0E0B0E0DC019927BF
:100380008827BC01CD01722B1F910F9108952F92E8
:100390003F924F925F926F927F928F929F92AF9215
:1003A000BF92CF92DF92EF92FF920F931F93CF9362
:1003B000DF9300D000D000D0CDB7DEB75C012A01BA
:1003C0003B018091E4019091E501A816B90608F07F
:1003D00037C18091F0018090ED010091EB01109107
:1003E000EC011A830983C090EA012090EE01082FE6
:1003F00010E03090EF0188117DC0C501880F991F72
:100400008A0D9B1D29813A81280F391F3E832D8338
:10041000CC2009F453C0D12CE12CF12CF901E20DD0
:10042000F11D608170E0762F6627072E000C880B87
:10043000990BA70196010E94840DB42FA32F922F30
:10044000882789839A83AB83BC83ED81FE81E00F8B
:10045000F11F608170E0762F6627072E000C880B55
:10046000990BA70196010E94840DD901992788272D
:1004700009811A812B813C81082B192B2A2B3B2BBC
:1004800009831A832B833C830D811E81030D111D6B
:10049000D8016C9170E0762F6627072E000C880B30
:1004A000990BA70196010E94840D89819A81AB81E5
:1004B000BC81822B932BA42BB52BC5C0ED81FE8173
:1004C000E20DF11D8081ED81FE81E00FF11F2081A1
:1004D000422F50E060E070E0BA0155274427582BC6
:1004E0000D811E81030D111DD8018C918A019B0184
:1004F000082BA3C0C501880F991F880F991F298158
:100500003A81280F391F3E832D83912CCC2009F48A
:1005100073C0D12CE12CF12CF901E00FF11F6081A7
:1005200070E0762F6627072E000C880B990BA70129
:1005300096010E94840DB22FAA27992788278983C4
:100540009A83AB83BC83ED81FE81E80DF91D608148
:1005500070E0762F6627072E000C880B990BA701F9
:1005600096010E94840DD9019927882709811A8153
:100570002B813C81082B192B2A2B3B2B09831A83B7
:100580002B833C83ED81FE81E30DF11D608170E0E2
:10059000762F6627072E000C880B990BA701960172
:1005A0000E94840D89819A81AB81BC81822B932B1F
:1005B000A42BB52B89839A83AB83BC830D811E81C9
:1005C000020D111DD8016C9170E0762F6627072E61
:1005D000000C880B990BA70196010E94840DB42F83
:1005E000A32F922F882709811A812B813C81802B90
:1005F000912BA22BB32B27C0ED81FE81E00FF11FC1
:100600008081ED81FE81E80DF91D2081422F50E0AF
:1006100060E070E0BA0155274427782BED81FE8118
:10062000E30DF11D8081482B0D811E81020D111DEE
:10063000D8018C918A019B01182BD901C80103C0F4
:1006400080E090E0DC01B301A201482B592B6A2B1A
:100650007B2BC50126960FB6F894DEBF0FBECDBF2B
:10066000DF91CF911F910F91FF90EF90DF90CF908E
:10067000BF90AF909F908F907F906F905F904F90C2
:100680003F902F900C947C07CF93DF936CE30E94F4
:10069000500DC92FD0E0CE0101970E94810140E0AA
:1006A00052E260E070E00E94C701CE010E94810129
:1006B00040E05FEF60E070E00E94C701CE0101966C
:1006C0000E94810140E052E260E070E0DF91CF9152
:1006D0000C94C701CF93DF93FB012CE030E0B9010C
:1006E0000E94700D45E0489FE001499FD00D112404
:1006F0002297CF016CE370E00E94700DB9010E9457
:10070000700DC60FD71FD7FF02C0EC96FCCFCE01ED
:100710000E94810140E050E061E170E00E94C70169
:10072000CE0101960E94810140E050E064E470E057
:100730000E94C701CE0102960E94810140E050E074
:100740006FEF70E00E94C701CE0103960E94810105
:1007500040E050E064E470E00E94C701CE010496DE
:100760000E94810140E050E061E170E0DF91CF91B3
:100770000C94C7018F929F92AF92BF92CF92DF925B
:10078000EF92FF920F931F93CF93DF936C014A0177
:100790005B0100E010E0E12CF12CC016D10604F161
:1007A000C0E0D0E08091E4019091E501C817D9073D
:1007B00060F4E80CF91CA7010F2C000C660B770BFA
:1007C000CE010E947C072196EDCF0E94BC066AE014
:1007D00070E080E090E00E94E008085F1F4FDDCFEE
:1007E000DF91CF911F910F91FF90EF90DF90CF900D
:1007F000BF90AF909F908F900895E2EEF1E044811A
:10080000558160E070E0818592850E94D20E8091D2
:10081000810160E070E090E00E946A0380918201B3
:100820000E9444030C94BC060E94CD0E6F927F92EE
:100830008F929F92AF92BF92CF92DF92EF92FF92F0
:100840000F931F93CF93DF934C015B01EA013901B2
:1008500081E08093B20188E68093D4011092B301C5
:100860001092D50160E086ED91E00E94440181E0A4
:100870000E94F0078091B1018111FCCF81E080934B
:10088000B1018093B0019FEF9093AF011092AE0140
:1008900096E09093AD0180938C0180918C01806DE6
:1008A00080938C0180918B01813061F410928B01D7
:1008B00080918C018093BB008091BC0083FDF8CFB8
:1008C00085EC01C085EE8093BC008091B101813040
:1008D000E1F38091AE01873018F49091AE0101C030
:1008E00097E0ADE8B1E0E8E1F1E080E0891721F0C0
:1008F0002D9121938F5FFACF1092800180937F0119
:10090000873009F06AC086ED91E00E94FB00982FC5
:100910009695969596959E70292F220F220F920FED
:100920008F70890FF401808386ED91E00E94FB00B7
:10093000982F92959F708F70FAE09F9F800D1124E1
:10094000F501808386ED91E00E94FB00982F96953B
:10095000969596959670292F220F220F920F8F70E1
:10096000890F888386ED91E00E94FB00982F929575
:100970009F708F70FAE09F9F800D1124F301808398
:1009800086ED91E00E94FB00982F92959F708F70EA
:10099000FAE09F9F800D1124F801808386ED91E09D
:1009A0000E94FB00982F92959F708F70FAE09F9F96
:1009B000800D1124F701808386ED91E00E94FB00F9
:1009C000982F92959F708F70FAE09F9F800D112451
:1009D000F601808381E090E002C080E090E0DF914A
:1009E000CF911F910F91FF90EF90DF90CF90BF902C
:1009F000AF909F908F907F906F900895CF92DF92ED
:100A0000EF92FF920F931F93CF93DF93EC01288116
:100A100039813327F901E458FF4F8491F901E057F8
:100A2000FF4F0491F901E255FF4F14911123A1F0FA
:100A300081110E944C08E12FF0E0EE0FFF1FE859F2
:100A4000FF4FA591B491EC91E02391E080E009F48F
:100A500090E0092F182F02C000E010E0C80121E04B
:100A6000822781700115110511F0F12C02C090E26E
:100A7000F92E9C81891741F08C830E941A097B838F
:100A80006A838F2D81601BC08D8183708130C1F49A
:100A90000E941A09CA80DB800D2C000CEE08FF08AA
:100AA000DC01CB018C199D09AE09BF09C297A105D4
:100AB000B10534F0012B11F082E101C082E78D8392
:100AC000DF91CF911F910F91FF90EF90DF90CF902A
:100AD00008951F920F920FB60F9211242F933F93F8
:100AE0004F935F936F937F938F939F93AF93BF9336
:100AF000EF93FF938091B900887F803609F49CC002
:100B000068F5883209F45BC090F4803109F454C070
:100B100038F4882309F4F6C0883009F44DC0F6C0D3
:100B2000883109F44CC0803209F45DC0EFC08034D4
:100B300009F468C048F4803309F455C0883309F0DB
:100B4000E5C08093AF01D8C0803509F44FC0883527
:100B500009F45DC0883409F0D9C0D6C0883909F4D9
:100B6000C7C0A8F4883709F467C038F4883609F498
:100B700063C0803709F460C0C9C0883809F4B8C0C0
:100B8000803909F45FC0803809F0C0C05BC0803B89
:100B900009F486C038F4803A09F466C0883A09F44A
:100BA0007FC0B4C0803C09F4A7C0883C09F4A4C04D
:100BB000883B09F48AC0AAC080918C0110C0909132
:100BC000AE018091AD01981770F5E091AE0181E022
:100BD0008E0F8093AE01F0E0E357FE4F808180934B
:100BE000BB0085EC86C08093AF018EC0E091AE0162
:100BF00081E08E0F8093AE018091BB00F0E0E3575F
:100C0000FE4F80839091AE018091AD016EC0E09166
:100C1000AE0181E08E0F8093AE018091BB00F0E0C9
:100C2000E357FE4F80838091B00181116DC081E058
:100C300080938B0184EA61C083E08093B1011092BC
:100C40007A01CFCF80917A01803208F051C0E091D3
:100C50007A0181E08E0F80937A018091BB00F0E0F1
:100C6000E65AFE4F8083BDCF85EC8093BC00109286
:100C7000B10180917A01803230F4E0917A01F0E0A4
:100C8000E65AFE4F108260917A0170E0E0917B019C
:100C9000F0917C018AE591E0099510927A0136C0C5
:100CA00084E08093B1011092590110925801E091B3
:100CB0007D01F0917E01099580915801811105C057
:100CC00081E08093580110923801E091590181E050
:100CD0008E0F80935901F0E0E85CFE4F8081809395
:100CE000BB009091590180915801981708F479CF71
:100CF00085E88093BC000AC085EC8093BC0010920C
:100D0000B10104C01092AF010E94B900FF91EF91B0
:100D1000BF91AF919F918F917F916F915F914F9113
:100D20003F912F910F900FBE0F901F9018953FB7D6
:100D3000F8948091090290910A02A0910B02B0915F
:100D40000C0226B5A89B05C02F3F19F00196A11DE6
:100D5000B11D3FBFBA2FA92F982F8827820F911D51
:100D6000A11DB11DBC01CD0142E0660F771F881F98
:100D7000991F4A95D1F708950F931F93CF93DF934F
:100D8000CDB7DEB729970FB6F894DEBF0FBECDBF43
:100D90008091EB019091EC01892B09F4A2C00E9493
:100DA00097060091F1011091F2012091F301309129
:100DB000F401DC01CB01801B910BA20BB30B8C3235
:100DC0009140A105B10558F3F8948091E601909106
:100DD000E7019A838983E091EB01F091EC01DF0157
:100DE0001196808189879091E201E091F501F0915F
:100DF000F6018091F701992309F42EC09081982B78
:100E000098879081809589238F838F818C8388E058
:100E10008B8358856F8149853B812C8189819A819B
:100E2000508347FD252F3A952083262F39F0441F04
:100E300000C000006083000000C0F2CF38E04D9198
:100E400060830000019761F7F093F601E093F501EC
:100E500049873B832C8338C09081982B9887908159
:100E6000809589238F838F818E8388E08D83588539
:100E70006F8149853D812E8189819A81508347FD0B
:100E8000252F00C000C0208300C000C000C000C0EB
:100E900000C060830000262F3A9541F0441F0000F7
:100EA00000C000C000C000C000C0E8CF38E04D91D5
:100EB00000C0608300C0019709F7F093F601E0934A
:100EC000F50149873D832E839A83898378940E9414
:100ED00097066093F1017093F2018093F301909370
:100EE000F40129960FB6F894DEBF0FBECDBFDF9197
:100EF000CF911F910F9108958F929F92AF92BF92C1
:100F0000CF92DF92EF92FF92CF93DF932091E40193
:100F10003091E5018217930708F057C04B01AA24CE
:100F2000BB24F82DC52ED62EE72EFF24AC2DE42FA2
:100F30002091EA01222361F0829E40011124F92DC3
:100F40002C9D60011124AD2D249FE0011124ED2F73
:100F50003091F001B091ED01E090EB01F090EC01E7
:100F60003B1308C09C01220F331F820F931F8E0D6D
:100F70009F1D19C0880F991F880F991F8E0D9F1DE7
:100F8000472F552766277727EC01C30FD11D222352
:100F900049F030E0249F7001259FF00C349FF00C45
:100FA00011244F2D48832091ED01EC01C20FD11D7A
:100FB000F8832091EE01EC01C20FD11DA88320918E
:100FC000EF01DC01A20FB11DEC93DF91CF91FF90F7
:100FD000EF90DF90CF90BF90AF909F908F9008954B
:100FE000282F3091D501313208F04AC08091B101EB
:100FF0008111FCCF9091D40142E04093B101209344
:10100000B0012FEF2093AF011092AE013093AD01EC
:10101000E4EBF1E0ADE8B1E020E0321721F04191DE
:101020004D932F5FFACF10928C0120918C01990F74
:10103000922B90938C0190918B01913061F41092DE
:101040008B0190918C019093BB009091BC0093FD1B
:10105000F8CF95EC01C095EE9093BC009091B10152
:101060009230E1F39091AF019F3F79F08091AF0111
:10107000803241F08091AF01803331F084E005C0CF
:1010800081E003C082E001C083E01092B3011092BE
:10109000D5011092B2010895833081F028F4813097
:1010A00099F08230A1F008958730A9F08830B9F026
:1010B0008430D1F4809180008F7D03C080918000C6
:1010C0008F7780938000089584B58F7702C084B5B0
:1010D0008F7D84BD08958091B0008F7703C080918B
:1010E000B0008F7D8093B00008951F93CF93DF935E
:1010F000282F30E0F901E458FF4F8491F901E057BF
:10110000FF4FD491F901E255FF4FC491CC23C1F0B8
:10111000162F81110E944C08EC2FF0E0EE0FFF1FFC
:10112000EC55FF4FA591B4919FB7F894111104C0ED
:101130008C91D095D82302C0EC91DE2BDC939FBF1D
:10114000DF91CF911F910895CF93DF9390E0FC0141
:10115000E057FF4F2491FC01E255FF4F8491882313
:1011600061F190E0880F991FFC01EE58FF4FC59187
:10117000D491FC01EC55FF4FA591B491611109C0C8
:101180009FB7F8948881209582238883EC912E2341
:101190000BC0623061F49FB7F8948881322F30958C
:1011A00083238883EC912E2B2C939FBF06C08FB78F
:1011B000F894E8812E2B28838FBFDF91CF9108957B
:1011C0008F929F92AF92BF92CF92DF92EF92FF9257
:1011D0006B017C010E9497064B015C01C114D10494
:1011E000E104F104F1F00E949706DC01CB018819BB
:1011F0009909AA09BB09883E9340A105B10570F37E
:1012000021E0C21AD108E108F10888EE880E83E0D7
:10121000981EA11CB11CC114D104E104F10419F7FA
:10122000DDCFFF90EF90DF90CF90BF90AF909F9079
:101230008F9008952FB7F89460910502709106027F
:1012400080910702909108022FBF08951F920F927C
:101250000FB60F9211242F933F938F939F93AF93C9
:10126000BF938091050290910602A0910702B09170
:1012700008023091040223E0230F2D3720F4019659
:10128000A11DB11D05C026E8230F0296A11DB11DA9
:10129000209304028093050290930602A093070214
:1012A000B09308028091090290910A02A0910B026A
:1012B000B0910C020196A11DB11D8093090290937B
:1012C0000A02A0930B02B0930C02BF91AF919F91C1
:1012D0008F913F912F910F900FBE0F901F901895F7
:1012E000CF93DF93CDB7DEB727970FB6F894DEBF65
:1012F0000FBECDBF789484B5826084BD84B5816013
:1013000084BD85B5826085BD85B5816085BD8091D0
:101310006E00816080936E00109281008091810048
:101320008260809381008091810081608093810040
:10133000809180008160809380008091B100846002
:101340008093B1008091B00081608093B000809163
:101350007A00846080937A0080917A008260809322
:101360007A0080917A00816080937A0080917A007F
:10137000806880937A001092C10061E082E00E9450
:10138000A40860E08091F8010E94A40860E08091C8
:10139000FE010E94A4081092800110927F01109219
:1013A000B3011092D5011092B10181E08093B00198
:1013B00010928B0161E082E10E94750861E083E197
:1013C0000E9475088091B9008E7F8093B90080914A
:1013D000B9008D7F8093B90088E48093B80085E4DC
:1013E0008093BC008DE890E090937E0180937D0116
:1013F0008EE890E090937C0180937B018091E801DE
:101400009091E90197FD08C061E00E94A40860E0A6
:101410008091E8010E94750881E08093E3010E94B9
:10142000BC06AA24AA94B12C9CE3592E20E0622E7B
:1014300020E0722E88EF91E00E94FE048EEF91E092
:101440000E94FE0480918A01882309F4EFC00E9463
:101450001A09009184011091850120918601309133
:101460008701DC01CB01801B910BA20BB30B8938E8
:101470009341A105B1050CF48FC010928A01CE01F1
:1014800001966C0101967C018E010D5F1F4F9E013C
:101490002C5F3F4FAE014B5F5F4FBE016A5F7F4FD6
:1014A00005960E9416040981FA80EB80DC80C090CA
:1014B0008101909082018090830181E08093B2014C
:1014C00088E68093D4011092B3011092D50160E0B8
:1014D00086ED91E00E9444011AE0882D612F0E9460
:1014E000500D692F20E1829F600D112486ED91E05F
:1014F0000E944401892D612F0E94500D692F20E127
:10150000829F600D112486ED91E00E9444018C2D94
:10151000612F0E94500D692F20E1829F600D1124E0
:1015200086ED91E00E9444018D2D612F0E94500DA7
:10153000692F20E1829F600D112486ED91E00E94C9
:1015400044018E2D612F0E94500D692F20E1829F52
:10155000600D112486ED91E00E9444018F2D612FD2
:101560000E94500D692F20E1829F600D112486EDAD
:1015700091E00E944401802F612F0E94500D692F3D
:1015800020E1829F600D112486ED91E00E944401CC
:1015900081E00E94F007E8C183E092E00E947701B9
:1015A0008823F1F040E050E061E070E084E190E0F9
:1015B0000E94BA03809181018F5F883118F4809373
:1015C000810102C0109281010E94FD030E941A094C
:1015D00060938401709385018093860190938701C5
:1015E0008DEF91E00E947701882309F4BDC140E0AE
:1015F00051E060E070E084E190E00E94BA038091E5
:1016000082018F5F8C3318F48093820102C01092A4
:1016100082010E94FD030E941A0960938401709365
:10162000850180938601909387019EC1809103027A
:10163000982F93709230E1F585FF3AC08091FD01BB
:10164000982F93709230A1F585FF32C083E092E02D
:101650000E9477018DEF91E00E94770181E08093F5
:101660008A010E941A096093840170938501809316
:10167000860190938701CE0101966C0101967C0151
:101680008E010D5F1F4F9E012C5F3F4F41E851E0DF
:1016900062E871E083E891E00E94160441E051E0C5
:1016A00061E070E08FEF90E00E94BA030E94FD03BA
:1016B000CE0101966C0101967C018E010D5F1F4FDA
:1016C0009E012C5F3F4FAE014B5F5F4FBE016A5FD3
:1016D0007F4F05960E941604892B71F400E010E0FC
:1016E0004FEF50E0BA01C8010E947C070F5F1F4F07
:1016F0000C331105A9F736C14091E6015091E7017D
:1017000060E070E08091EB019091EC010E94D20EBC
:101710006E81662319F06E3109F010C18F8181113D
:101720000DC18091880190918901059724F0109254
:10173000890110928801009188011091890101307E
:10174000110509F45EC03CF40115110509F0EFC064
:10175000812C912C1BC00230110509F47AC0033092
:10176000110509F0E4C08AE0882E912CABC08FEF00
:10177000E81AF80A93E0E916F10451F42FEF821AFF
:10178000920A811481E0980609F4D1C0E12CF12C71
:10179000C12CD12C8091E4019091E501C816D906A5
:1017A00098F4C4018C0D9D1DB5010E945C0D0E9432
:1017B0008F01AB01BC01C7018C0D9D1D0E947C07F0
:1017C00093E0C90ED11CE6CF0E94BC0664E170E034
:1017D00080E090E00E94E008C12CD12C8091E401CF
:1017E0009091E501C816D90610F640E050E0BA0124
:1017F000C7018C0D9D1D0E947C0723E0C20ED11CE9
:10180000EDCFE12CF12CC12CD12C8091E4019091F1
:10181000E501C816D90668F48E2D8C0D0E948F0143
:10182000AB01BC01C6010E947C079FEFC91AD90A0F
:10183000ECCF0E94BC0664E170E080E090E00E9482
:10184000E0082FEFE21AF20AE11481E0F806D9F677
:101850006EC0E12CF12C812C912CC12CD12C6091EB
:10186000E4017091E501C616D70688F4C4010E9410
:101870005C0D862F8E0D0E948F01AB01BC01C6014D
:101880000E947C079FEFC91AD90A9394E8CF0E945F
:10189000BC0664E170E080E090E00E94E0088FEF19
:1018A000E81AF80AE11495E0F906A9F640C09FEF9E
:1018B000E91AF90A23E0E216F10431F481E0881A0A
:1018C0009108A9F1E12CF12CC12CD12C8091E401DB
:1018D0009091E501C816D90668F444E45EEE6AEA20
:1018E00070E0C7018C0D9D1D0E947C0723E0C20E95
:1018F000D11CECCF0E94BC0664E170E080E090E077
:101900000E94E008C12CD12C8091E4019091E50166
:10191000C816D90660F640E050E0BA01C7018C0D48
:101920009D1D0E947C0783E0C80ED11CEDCF0F5F88
:101930001F4F109389010093880114C070E08D81BE
:1019400090E00E946A038E810E9444038F81652D7E
:101950000E94500D4FEF50E060E070E0892F90E062
:101960000E94C7010E94BC066AE070E080E090E03F
:101970000E94E0086114710409F45CCD0E9400002B
:1019800053CD8091EB019091EC010E94440E809127
:10199000E8019091E90197FD03C060E00C94A40870
:1019A00008951092D9011092D80188EE93E0A0E03A
:1019B000B0E08093DA019093DB01A093DC01B09357
:1019C000DD018AE091E09093D7018093D6011092D7
:1019D000FF011092FE0181E090E09093F901809365
:1019E000F8011092E3011092EA011092F1011092B5
:1019F000F2011092F3011092F4018093F0018093B0
:101A0000ED011092EE0192E09093EF018093E201DC
:101A100084EB90E09093E7018093E6010E94AC0D87
:101A20009093EC018093EB01009761F024EBFC01B3
:101A300011922A95E9F78CE390E09093E501809369
:101A4000E40108C01092E7011092E6011092E5014E
:101A50001092E40182E090E09093E9018093E80124
:101A60008091E301882341F061E082E00E94A408B4
:101A700060E082E00E947508E0EBF0E0E491F0E0C5
:101A8000EE0FFF1FEC55FF4F859194919093F60157
:101A90008093F501E2E9F0E0E491E093F701089525
:101AA000991B79E004C0991F961708F0961B881FB0
:101AB0007A95C9F780950895AA1BBB1B51E107C011
:101AC000AA1FBB1FA617B70710F0A61BB70B881FCE
:101AD000991F5A95A9F780959095BC01CD0108955D
:101AE00097FB072E16F4009407D077FD09D00E94CB
:101AF0005C0D07FC05D03EF4909581959F4F0895AD
:101B0000709561957F4F0895A1E21A2EAA1BBB1B09
:101B1000FD010DC0AA1FBB1FEE1FFF1FA217B307B9
:101B2000E407F50720F0A21BB30BE40BF50B661FCF
:101B3000771F881F991F1A9469F760957095809593
:101B400090959B01AC01BD01CF010895EE0FFF1FE1
:101B50000590F491E02D09940F931F93CF93DF9399
:101B60008230910510F482E090E0E0910F02F09154
:101B7000100220E030E0A0E0B0E0309719F14081A1
:101B800051810281138148175907C8F084179507BE
:101B900069F4109731F012960C93129713961C93D8
:101BA00027C000930F021093100222C021153105A7
:101BB00019F04217530718F49A01BD01EF01DF0134
:101BC000F801DBCF21153105F9F0281B390B243042
:101BD000310580F48A819B816115710521F0FB013B
:101BE0009383828304C09093100280930F02FE01BE
:101BF000329644C0FE01E20FF31F8193919322506D
:101C00003109398328833AC020910D0230910E02A8
:101C1000232B41F4209102013091030130930E02F5
:101C200020930D0220910001309101012115310511
:101C300041F42DB73EB74091040150910501241B9A
:101C4000350BE0910D02F0910E02E217F307A0F4BC
:101C50002E1B3F0B2817390778F0AC014E5F5F4F02
:101C60002417350748F04E0F5F1F50930E02409324
:101C70000D028193919302C0E0E0F0E0CF01DF918B
:101C8000CF911F910F910895CF93DF93009709F49F
:101C900081C0FC01329713821282A0910F02B09191
:101CA0001002109781F420813181820F931F2091BF
:101CB0000D0230910E022817390751F5F0930E02EC
:101CC000E0930D0267C0ED0120E030E0CE17DF07A2
:101CD00040F44A815B819E0141155105F1F0EA0112
:101CE000F5CFD383C28340815181840F951FC817DC
:101CF000D90759F488819981840F951F02969183A1
:101D000080838A819B81938382832115310529F405
:101D1000F0931002E0930F023DC0E901FB83EA83D8
:101D200049915991C40FD51FEC17FD0761F48081CB
:101D30009181840F951F0296E9019983888382819E
:101D400093819B838A83E0E0F0E012968D919C91D1
:101D50001397009719F0FD01DC01F7CF8D919C914D
:101D600011979D012E5F3F4F820F931F20910D020F
:101D700030910E022817390769F4309729F4109230
:101D8000100210920F0202C013821282B0930E0250
:101D9000A0930D02DF91CF91089581E090E0F89437
:101DA0000C94D90EDC0101C06D9341505040E0F716
:101DB000089510E0C2E6D0E004C0FE010E94A60D26
:0C1DC0002196C336D107C9F7F894FFCF75
:101DCC000000110220000000000044011701740102
:081DDC00EB000F01FB00EC001D
:00000001FF
